:020000040000fa
:080000000001040000000000f3
:020000040000fa
:0400080008020000ea
:020000040000fa
:04000c004a020000a4
:020000040000fa
:040010008a02000060
:020000040000fa
:0400140028020000be
:020000040000fa
:040018006a02000078
:020000040000fa
:04001c00ea020000f4
:020000040000fa
:04002000ea020000f0
:020000040000fa
:04002400ea020000ec
:020000040000fa
:04002800ea020000e8
:020000040000fa
:04002c00ea020000e4
:020000040000fa
:04003000ea020000e0
:020000040000fa
:04003400aa0200001c
:020000040000fa
:04003800ea020000d8
:020000040000fa
:04003c00ea020000d4
:020000040000fa
:04004000ea020000d0
:020000040000fa
:04004400ea020000cc
:020000040000fa
:04004800ea020000c8
:020000040000fa
:04004c00ea020000c4
:020000040000fa
:04005000ea020000c0
:020000040000fa
:04005400ea020000bc
:020000040000fa
:04005800ea020000b8
:020000040000fa
:04005c00ea020000b4
:020000040000fa
:04006000ea020000b0
:020000040000fa
:04006400ea020000ac
:020000040000fa
:04006800ea020000a8
:020000040000fa
:04006c00ea020000a4
:020000040000fa
:04007000ea020000a0
:020000040000fa
:04007400ea0200009c
:020000040000fa
:04007800ea02000098
:020000040000fa
:04007c00ea02000094
:020000040000fa
:04008000ea02000090
:020000040000fa
:04008400ea0200008c
:020000040000fa
:04008800ea02000088
:020000040000fa
:04008c00ea02000084
:020000040000fa
:04009000ea02000080
:020000040000fa
:04009400ea0200007c
:020000040000fa
:04009800ea02000078
:020000040000fa
:04009c00ea02000074
:020000040000fa
:0400a000ea02000070
:020000040000fa
:0400a400ea0200006c
:020000040000fa
:0400a800ea02000068
:020000040000fa
:0400ac00ea02000064
:020000040000fa
:0400b000ea02000060
:020000040000fa
:0400b400ea0200005c
:020000040000fa
:0400b800ea02000058
:020000040000fa
:0400bc00ea02000054
:020000040000fa
:0400c000ea02000050
:020000040000fa
:0400c400ea0200004c
:020000040000fa
:0400c800ea02000048
:020000040000fa
:0400cc00ea02000044
:020000040000fa
:0400d000ea02000040
:020000040000fa
:0400d400ea0200003c
:020000040000fa
:0400d800ea02000038
:020000040000fa
:0400dc00ea02000034
:020000040000fa
:0400e000ea02000030
:020000040000fa
:0400e400ea0200002c
:020000040000fa
:0400e800ea02000028
:020000040000fa
:0400ec00ea02000024
:020000040000fa
:0400f000ea02000020
:020000040000fa
:0400f400ea0200001c
:020000040000fa
:0400f800ea02000018
:020000040000fa
:0400fc00ea02000014
:020000040000fa
:04010000ea0200000f
:020000040000fa
:04010400ea0200000b
:020000040000fa
:04010800ea02000007
:020000040000fa
:04010c00ea02000003
:020000040000fa
:04011000ea020000ff
:020000040000fa
:04011400ea020000fb
:020000040000fa
:04011800ea020000f7
:020000040000fa
:04011c00ea020000f3
:020000040000fa
:04012000ea020000ef
:020000040000fa
:04012400ea020000eb
:020000040000fa
:04012800ea020000e7
:020000040000fa
:04012c00ea020000e3
:020000040000fa
:04013000ea020000df
:020000040000fa
:04013400ea020000db
:020000040000fa
:04013800ea020000d7
:020000040000fa
:04013c00ea020000d3
:020000040000fa
:04014000ea020000cf
:020000040000fa
:04014400ea020000cb
:020000040000fa
:04014800ea020000c7
:020000040000fa
:04014c00ea020000c3
:020000040000fa
:04015000ea020000bf
:020000040000fa
:04015400ea020000bb
:020000040000fa
:04015800ea020000b7
:020000040000fa
:04015c00ea020000b3
:020000040000fa
:04016000ea020000af
:020000040000fa
:04016400ea020000ab
:020000040000fa
:04016800ea020000a7
:020000040000fa
:04016c00ea020000a3
:020000040000fa
:04017000ea0200009f
:020000040000fa
:04017400ea0200009b
:020000040000fa
:04017800ea02000097
:020000040000fa
:04017c00ea02000093
:020000040000fa
:04018000ea0200008f
:020000040000fa
:04018400ea0200008b
:020000040000fa
:04018800ea02000087
:020000040000fa
:04018c00ea02000083
:020000040000fa
:04019000ea0200007f
:020000040000fa
:04019400ea0200007b
:020000040000fa
:04019800ea02000077
:020000040000fa
:04019c00ea02000073
:020000040000fa
:0401a000ea0200006f
:020000040000fa
:0401a400ea0200006b
:020000040000fa
:0401a800ea02000067
:020000040000fa
:0401ac00ea02000063
:020000040000fa
:0401b000ea0200005f
:020000040000fa
:0401b400ea0200005b
:020000040000fa
:0401b800ea02000057
:020000040000fa
:0401bc00ea02000053
:020000040000fa
:0401c000ea0200004f
:020000040000fa
:0401c400ea0200004b
:020000040000fa
:0401c800ea02000047
:020000040000fa
:0401cc00ea02000043
:020000040000fa
:0401d000ea0200003f
:020000040000fa
:0401d400ea0200003b
:020000040000fa
:0401d800ea02000037
:020000040000fa
:0401dc00ea02000033
:020000040000fa
:0401e000ea0200002f
:020000040000fa
:0401e400ea0200002b
:020000040000fa
:0401e800ea02000027
:020000040000fa
:0401ec00ea02000023
:020000040000fa
:0401f000ea0200001f
:020000040000fa
:0401f400ea0200001b
:020000040000fa
:0401f800ea02000017
:020000040000fa
:0401fc00ea02000013
:020000040000fa
:100200008f8320000e7f24000e0188000000000074
:10021000000020000000e000020032000001200089
:100220002002880014000700ec0007000000e00036
:1002300003003a0080552000010020000200370032
:100240000000200001002000810f7000010032003a
:1002500014000700000020000000e000020032004f
:1002600000000200000000009e05020000000000e7
:100270000040da000000fe004440a90020002000f9
:100280000000e00003003200100020009001880010
:100290004440a800000006008a1f78008b1f7800e9
:1002a00000000600a1028800800478000000eb0036
:1002b0001f003700e284440054a0b4009905ba003e
:1002c000e284440054a0b4009906ba00e2844400d9
:1002d00054a0b4000006eb00476fde00fd07b2003b
:1002e000ae018800636ce10003003a00eaff0700fa
:1002f0000000eb000e003700606ce10008003a00df
:10030000004deb000a05e800020039003420ec0043
:100310000af0a0008b05e900f9ff3e000400370059
:100320006168e100010032000086eb000b0007006d
:1003300019c7ba001905ba000e04e00003003a001c
:100340000a00e000dbff3a0000000600fe07b200f2
:10035000ae0288008a047800f5ff37000cd0a300b5
:10036000e20f4d001c00390089027800354dba00bb
:100370000a05e800020039003420ec000af0a00071
:100380008b05e9000f003200254dba000a05e80090
:10039000020039003420ec000af0a0008b05e900cf
:1003a000080032000c00e0000600320015cdba0053
:1003b0000a05e800020039003420ec000af0a00031
:1003c0008b05e9008984e80054a0b4000b00e0002c
:1003d000e2ff3a00000006009902ba00055d7800cd
:1003e0008b05e900f7ff3200c82ade00055d7800c2
:1003f0008b05e900f3ff32000c00e000f1ff320052
:1004000019ddba00eeff37004e03040000000000c3
:100410003600f800809fbe00829fbe00849fbe0011
:10042000869fbe000000fa008020a9000000eb00bb
:10043000b60107000080fa004f03be004f02be0065
:100440004f01be004f00be003600f900004006001c
:100450003600f800809fbe00829fbe00849fbe00d1
:10046000869fbe000000fa00ad0107008040a90091
:1004700010002000a50107000080fa004f03be0015
:100480004f02be004f01be004f00be003600f90013
:10049000004006003600f800809fbe00829fbe002c
:1004a000849fbe00869fbe000000fa008060a90005
:1004b00020002000950107000080fa004f03be00d5
:1004c0004f02be004f01be004f00be003600f900d3
:1004d000004006003600f800809fbe00829fbe00ec
:1004e000849fbe00869fbe000000fa008080a900a5
:1004f00030002000850107000080fa004f03be0095
:100500004f02be004f01be004f00be003600f90092
:10051000004006003600f800809fbe00829fbe00ab
:10052000849fbe00869fbe000000fa008600a900de
:1005300070002000750107000080fa004f03be0024
:100540004f02be004f01be004f00be003600f90052
:10055000004006003600f800809fbe00829fbe006b
:10056000849fbe00869fbe000000fa0040408000cd
:100570000000e00002003200404080000000010066
:1005800050832000104078008040e8005083200015
:100590000148780060832000104078008040e90026
:1005a00060832000014878004083200011c0b30020
:1005b000014878008860a9000080fa004f03be005f
:1005c0004f02be004f01be004f00be003600f900d2
:1005d000004006000040da000000fe0000000500b8
:020000040000fa
:1005e0000000fa009021ef0010a12700900c880075
:1005f00000032800a00c8800404080000000e000bc
:1006000002003a00e03420004d0007008860a90095
:100610009860a800408320008040eb0001487800eb
:10062000608320008040eb00014878000080fa00e1
:10063000000006000200fa00000f78009e0078001b
:10064000910c8800408320008040eb000148780036
:100650000080fa00000006000000fa00900c800004
:100660000080fa00000006000200fa00000f780087
:100670009e007800810c8800408320008040eb00c1
:10068000014878000080fa00000006000000fa002f
:10069000800c80000080fa00000006000000fa00d4
:1006a000c0822000104078008040e800c082200016
:1006b00001487800c082200090407800c0c3b30099
:1006c00080cf500008003a00d0822000104078000f
:1006d0008040e800d082200001487800c0822000dd
:1006e0008040eb0001487800d082200090407800e4
:1006f000c0c3b30080cf500008003a00e082200061
:10070000104078008040e800e08220000148780036
:10071000d08220008040eb0001487800e082200079
:1007200010407800f84f500003003a00e0822000ab
:100730008040eb00014878000080fa0000000600cd
:100740000200fa00000f78009860a9009e0078006f
:10075000414088009860a8000080fa000000060070
:100760000000fa00408320008040eb000148780040
:100770009860a80095e1a8000080fa00000006003b
:100780000000fa0095e1a9009860a9000080fa0035
:10079000000006000200fa0040832000104f78009d
:1007a0001e4078000004e000030032004083200077
:1007b0008040eb00014878001e4078000080fa007d
:1007c000000006000000fa0050832000104078006e
:1007d0000080fb000080fa00000006000000fa0024
:1007e000508320008040eb00014878000080fa0030
:1007f000000006000000fa00608320008040eb004b
:10080000014878000080fa00000006000000fa00ad
:1008100040072800303a88004827ef0090902000d9
:10082000503a88004c27ef004e27ef005027ef008a
:100830005a27ef00f422ef00403a80004200de0029
:100840007f4060000ae8b7000080fa000000060060
:100850000000fa004627a8000080fa000000060009
:100860000000fa004627a9000080fa0000000600f8
:100870000600fa00e400470080087800217120009b
:100880000e80e800010878000000eb00000f7800ff
:100890000f0037001e00780000004000e400470011
:1008a00091007800008040008e80e8009100780080
:1008b00091007800010878000e80e80010007800b0
:1008c0008080e8000e80e800010878001e0fe80034
:1008d0000ac8bf000080fb009e0f5000edff3d00e6
:1008e0001e0078000080fa00000006000000fa00f8
:1008f000903880000080fa00000006000000fa0036
:10090000303a800000407800614060000080fb00c9
:1009100000f0a7000000ea000000ea004f00de003f
:10092000004078000080fa00000006000200fa0093
:10093000000f78009e007800613a88000080fa007d
:10094000000006000200fa00000f78001e00780088
:10095000f6ff0700beff0700c1ff07000000000010
:10096000e6ff07000004a2000004e000fcff3a00dc
:10097000deff07000080fa00000006000000fa0019
:1009800089a0a9000080fa00000006000000fa001b
:1009900000002300100888000621ef006821ef0006
:1009a0006a21ef000821ef00007020005008880045
:1009b0000c21ef000e21ef007821ef007a21ef00eb
:1009c0007c21ef007e21ef008021ef008221ef00eb
:1009d0008421ef008621ef00120020008007200014
:1009e000a109200013102000804978008149780077
:1009f0008249780012002000600420007105200068
:100a000003102000804978008149780082497800ed
:100a10000000000000088000610060000000e000ad
:100a2000fcff3a00000000000108800000022000e6
:100a3000008060000000e000fbff32000080fa0050
:100a4000000006000000fa006626ef007a26ef009c
:100a50008e26ef0070f9270010338800f0fe2f007b
:100a6000b0338800703c2000503488007426ef00ba
:100a70008826ef009c26ef007226ef008626ef0006
:100a80009a26ef006826ef007c26ef009026ef0004
:100a90007000200050338800f0202f00f0338800d1
:100aa00070002000903488000080fa0000000600ea
:020000040000fa
:100ab0000c08000020000000800000000608000074
:100ac0000200000082000000ffff00003408000068
:100ad0000400000080000000080800000200000080
:100ae000800000000a0800000200000080000000f2
:100af0002c08000008000000800000000008000032
:0c0b000006000000800000000000000063
:020000040000fa
:100b0c000200fa00000f78009e0078003140880047
:100b1c00ffff37000000fa00c0802000800778003b
:100b2c0040822000000188000080fa0000000600ce
:100b3c000000fa000900070031ff07007a86a800c0
:100b4c008e66a8008e86a8008ea6a80080002000c5
:100b5c0079ff070000408800fcff37000000fa0016
:100b6c00b5ff07000500070085ff070024ff0700fd
:100b7c0098fe07000080fa00000006000000fa0052
:100b8c0041058000f0ff28000080600000c0a0003c
:0c0b9c00400588000080fa000000060000
:020000040000fa
:020000040002f8
:04be0000ffffff0041
:020000040000fa
:020000040002f8
:04be2000ffffff0021
:020000040000fa
:020000040002f8
:04be300008ffff0008
:020000040000fa
:020000040002f8
:04be380063ffff00a5
:020000040000fa
:020000040002f8
:04be40009fffff0061
:020000040000fa
:020000040002f8
:04be4800ffffff00f9
:020000040000fa
:020000040002f8
:04be5000deffff0012
:020000040000fa
:020000040002f8
:04be5800ffffff00e9
:00000001FF
